{
  "_format": "hh-sol-artifact-1",
  "contractName": "CrowdFunding",
  "sourceName": "contracts/CrowdFunding.sol",
  "abi": [
    {
      "inputs": [],
      "stateMutability": "nonpayable",
      "type": "constructor"
    },
    {
      "anonymous": false,
      "inputs": [
        {
          "indexed": false,
          "internalType": "string",
          "name": "title",
          "type": "string"
        },
        {
          "indexed": false,
          "internalType": "string",
          "name": "description",
          "type": "string"
        },
        {
          "indexed": false,
          "internalType": "address",
          "name": "benefactor",
          "type": "address"
        },
        {
          "indexed": false,
          "internalType": "uint256",
          "name": "goal",
          "type": "uint256"
        },
        {
          "indexed": false,
          "internalType": "uint256",
          "name": "deadline",
          "type": "uint256"
        },
        {
          "indexed": false,
          "internalType": "uint256",
          "name": "campaignId",
          "type": "uint256"
        }
      ],
      "name": "CampaignCreated",
      "type": "event"
    },
    {
      "anonymous": false,
      "inputs": [
        {
          "indexed": false,
          "internalType": "uint256",
          "name": "campaignId",
          "type": "uint256"
        }
      ],
      "name": "CampaignEnded",
      "type": "event"
    },
    {
      "anonymous": false,
      "inputs": [
        {
          "indexed": false,
          "internalType": "address",
          "name": "sender",
          "type": "address"
        },
        {
          "indexed": false,
          "internalType": "uint256",
          "name": "amount",
          "type": "uint256"
        },
        {
          "indexed": false,
          "internalType": "uint256",
          "name": "campaignId",
          "type": "uint256"
        }
      ],
      "name": "DonationReceived",
      "type": "event"
    },
    {
      "inputs": [
        {
          "internalType": "address",
          "name": "",
          "type": "address"
        }
      ],
      "name": "addressToCampaign",
      "outputs": [
        {
          "internalType": "uint256",
          "name": "",
          "type": "uint256"
        }
      ],
      "stateMutability": "view",
      "type": "function"
    },
    {
      "inputs": [
        {
          "internalType": "uint256",
          "name": "",
          "type": "uint256"
        }
      ],
      "name": "campaigns",
      "outputs": [
        {
          "internalType": "string",
          "name": "title",
          "type": "string"
        },
        {
          "internalType": "string",
          "name": "description",
          "type": "string"
        },
        {
          "internalType": "address",
          "name": "benefactor",
          "type": "address"
        },
        {
          "internalType": "uint256",
          "name": "goal",
          "type": "uint256"
        },
        {
          "internalType": "uint256",
          "name": "deadline",
          "type": "uint256"
        },
        {
          "internalType": "uint256",
          "name": "amountRaised",
          "type": "uint256"
        },
        {
          "internalType": "bool",
          "name": "ended",
          "type": "bool"
        },
        {
          "internalType": "uint256",
          "name": "id",
          "type": "uint256"
        }
      ],
      "stateMutability": "view",
      "type": "function"
    },
    {
      "inputs": [
        {
          "internalType": "string",
          "name": "_title",
          "type": "string"
        },
        {
          "internalType": "string",
          "name": "_description",
          "type": "string"
        },
        {
          "internalType": "uint256",
          "name": "_goal",
          "type": "uint256"
        },
        {
          "internalType": "uint256",
          "name": "_deadline",
          "type": "uint256"
        }
      ],
      "name": "createCampaign",
      "outputs": [],
      "stateMutability": "payable",
      "type": "function"
    },
    {
      "inputs": [
        {
          "internalType": "uint256",
          "name": "campaignId",
          "type": "uint256"
        }
      ],
      "name": "donateToCampaign",
      "outputs": [],
      "stateMutability": "payable",
      "type": "function"
    },
    {
      "inputs": [
        {
          "internalType": "uint256",
          "name": "campaignId",
          "type": "uint256"
        }
      ],
      "name": "endCampaign",
      "outputs": [],
      "stateMutability": "payable",
      "type": "function"
    },
    {
      "inputs": [],
      "name": "getCampaigns",
      "outputs": [
        {
          "components": [
            {
              "internalType": "string",
              "name": "title",
              "type": "string"
            },
            {
              "internalType": "string",
              "name": "description",
              "type": "string"
            },
            {
              "internalType": "address",
              "name": "benefactor",
              "type": "address"
            },
            {
              "internalType": "uint256",
              "name": "goal",
              "type": "uint256"
            },
            {
              "internalType": "uint256",
              "name": "deadline",
              "type": "uint256"
            },
            {
              "internalType": "uint256",
              "name": "amountRaised",
              "type": "uint256"
            },
            {
              "internalType": "bool",
              "name": "ended",
              "type": "bool"
            },
            {
              "internalType": "uint256",
              "name": "id",
              "type": "uint256"
            }
          ],
          "internalType": "struct CrowdFunding.Campaign[]",
          "name": "",
          "type": "tuple[]"
        }
      ],
      "stateMutability": "view",
      "type": "function"
    },
    {
      "inputs": [
        {
          "internalType": "uint256",
          "name": "campaignId",
          "type": "uint256"
        }
      ],
      "name": "getSingleCampaign",
      "outputs": [
        {
          "components": [
            {
              "internalType": "string",
              "name": "title",
              "type": "string"
            },
            {
              "internalType": "string",
              "name": "description",
              "type": "string"
            },
            {
              "internalType": "address",
              "name": "benefactor",
              "type": "address"
            },
            {
              "internalType": "uint256",
              "name": "goal",
              "type": "uint256"
            },
            {
              "internalType": "uint256",
              "name": "deadline",
              "type": "uint256"
            },
            {
              "internalType": "uint256",
              "name": "amountRaised",
              "type": "uint256"
            },
            {
              "internalType": "bool",
              "name": "ended",
              "type": "bool"
            },
            {
              "internalType": "uint256",
              "name": "id",
              "type": "uint256"
            }
          ],
          "internalType": "struct CrowdFunding.Campaign",
          "name": "",
          "type": "tuple"
        }
      ],
      "stateMutability": "view",
      "type": "function"
    }
  ],
  "bytecode": "0x6080604052348015600f57600080fd5b50336000806101000a81548173ffffffffffffffffffffffffffffffffffffffff021916908373ffffffffffffffffffffffffffffffffffffffff160217905550611f3a8061005f6000396000f3fe6080604052600436106100705760003560e01c806342a4fda81161004e57806342a4fda814610133578063a318f2691461014f578063a6b036331461016b578063dd0408ae1461019657610070565b806304efaa0214610075578063141961bc146100b2578063195e9a34146100f6575b600080fd5b34801561008157600080fd5b5061009c6004803603810190610097919061106d565b6101b2565b6040516100a9919061124c565b60405180910390f35b3480156100be57600080fd5b506100d960048036038101906100d4919061106d565b6103b7565b6040516100ed9897969594939291906112e5565b60405180910390f35b34801561010257600080fd5b5061011d6004803603810190610118919061139d565b61054c565b60405161012a91906113ca565b60405180910390f35b61014d6004803603810190610148919061106d565b610564565b005b6101696004803603810190610164919061151a565b6107c7565b005b34801561017757600080fd5b50610180610a50565b60405161018d9190611732565b60405180910390f35b6101b060048036038101906101ab919061106d565b610c6d565b005b6101ba610fc6565b600180836101c89190611783565b815481106101d9576101d86117b7565b5b90600052602060002090600802016040518061010001604052908160008201805461020390611815565b80601f016020809104026020016040519081016040528092919081815260200182805461022f90611815565b801561027c5780601f106102515761010080835404028352916020019161027c565b820191906000526020600020905b81548152906001019060200180831161025f57829003601f168201915b5050505050815260200160018201805461029590611815565b80601f01602080910402602001604051908101604052809291908181526020018280546102c190611815565b801561030e5780601f106102e35761010080835404028352916020019161030e565b820191906000526020600020905b8154815290600101906020018083116102f157829003601f168201915b505050505081526020016002820160009054906101000a900473ffffffffffffffffffffffffffffffffffffffff1673ffffffffffffffffffffffffffffffffffffffff1673ffffffffffffffffffffffffffffffffffffffff1681526020016003820154815260200160048201548152602001600582015481526020016006820160009054906101000a900460ff161515151581526020016007820154815250509050919050565b600181815481106103c757600080fd5b90600052602060002090600802016000915090508060000180546103ea90611815565b80601f016020809104026020016040519081016040528092919081815260200182805461041690611815565b80156104635780601f1061043857610100808354040283529160200191610463565b820191906000526020600020905b81548152906001019060200180831161044657829003601f168201915b50505050509080600101805461047890611815565b80601f01602080910402602001604051908101604052809291908181526020018280546104a490611815565b80156104f15780601f106104c6576101008083540402835291602001916104f1565b820191906000526020600020905b8154815290600101906020018083116104d457829003601f168201915b5050505050908060020160009054906101000a900473ffffffffffffffffffffffffffffffffffffffff16908060030154908060040154908060050154908060060160009054906101000a900460ff16908060070154905088565b60026020528060005260406000206000915090505481565b67016345785d8a00003410156105af576040517f08c379a00000000000000000000000000000000000000000000000000000000081526004016105a6906118b8565b60405180910390fd5b42600180836105be9190611783565b815481106105cf576105ce6117b7565b5b90600052602060002090600802016004015411610621576040517f08c379a000000000000000000000000000000000000000000000000000000000815260040161061890611924565b60405180910390fd5b60018181548110610635576106346117b7565b5b90600052602060002090600802016003015434600180846106569190611783565b81548110610667576106666117b7565b5b9060005260206000209060080201600501546106839190611944565b106106c3576040517f08c379a00000000000000000000000000000000000000000000000000000000081526004016106ba906119c4565b60405180910390fd5b60001515600182815481106106db576106da6117b7565b5b906000526020600020906008020160060160009054906101000a900460ff1615151461073c576040517f08c379a000000000000000000000000000000000000000000000000000000000815260040161073390611a30565b60405180910390fd5b60006001808361074c9190611783565b8154811061075d5761075c6117b7565b5b90600052602060002090600802019050348160050160008282546107819190611944565b925050819055507f4b0304ab2f313234b1cea012339c8f8c3bf2c8bb357d81a579cfdb35d2e3d0303334846040516107bb93929190611a50565b60405180910390a15050565b428111610809576040517f08c379a000000000000000000000000000000000000000000000000000000000815260040161080090611af9565b60405180910390fd5b67016345785d8a00008211610853576040517f08c379a000000000000000000000000000000000000000000000000000000000815260040161084a90611b8b565b60405180910390fd5b600081426108619190611944565b905060016040518061010001604052808781526020018681526020013373ffffffffffffffffffffffffffffffffffffffff16815260200185815260200183815260200160008152602001600015158152602001600180805490506108c69190611944565b815250908060018154018082558091505060019003906000526020600020906008020160009091909190915060008201518160000190816109079190611d57565b50602082015181600101908161091d9190611d57565b5060408201518160020160006101000a81548173ffffffffffffffffffffffffffffffffffffffff021916908373ffffffffffffffffffffffffffffffffffffffff160217905550606082015181600301556080820151816004015560a0820151816005015560c08201518160060160006101000a81548160ff02191690831515021790555060e082015181600701555050600180549050600260003373ffffffffffffffffffffffffffffffffffffffff1673ffffffffffffffffffffffffffffffffffffffff168152602001908152602001600020819055507f56bba6f426db79ec16498d6da012ef6789ca1462e37648a5adcb64877b6e459f858533868660018080549050610a2f9190611944565b604051610a4196959493929190611e29565b60405180910390a15050505050565b60606001805480602002602001604051908101604052809291908181526020016000905b82821015610c64578382906000526020600020906008020160405180610100016040529081600082018054610aa890611815565b80601f0160208091040260200160405190810160405280929190818152602001828054610ad490611815565b8015610b215780601f10610af657610100808354040283529160200191610b21565b820191906000526020600020905b815481529060010190602001808311610b0457829003601f168201915b50505050508152602001600182018054610b3a90611815565b80601f0160208091040260200160405190810160405280929190818152602001828054610b6690611815565b8015610bb35780601f10610b8857610100808354040283529160200191610bb3565b820191906000526020600020905b815481529060010190602001808311610b9657829003601f168201915b505050505081526020016002820160009054906101000a900473ffffffffffffffffffffffffffffffffffffffff1673ffffffffffffffffffffffffffffffffffffffff1673ffffffffffffffffffffffffffffffffffffffff1681526020016003820154815260200160048201548152602001600582015481526020016006820160009054906101000a900460ff1615151515815260200160078201548152505081526020019060010190610a74565b50505050905090565b610c75610fc6565b60018083610c839190611783565b81548110610c9457610c936117b7565b5b906000526020600020906008020160405180610100016040529081600082018054610cbe90611815565b80601f0160208091040260200160405190810160405280929190818152602001828054610cea90611815565b8015610d375780601f10610d0c57610100808354040283529160200191610d37565b820191906000526020600020905b815481529060010190602001808311610d1a57829003601f168201915b50505050508152602001600182018054610d5090611815565b80601f0160208091040260200160405190810160405280929190818152602001828054610d7c90611815565b8015610dc95780601f10610d9e57610100808354040283529160200191610dc9565b820191906000526020600020905b815481529060010190602001808311610dac57829003601f168201915b505050505081526020016002820160009054906101000a900473ffffffffffffffffffffffffffffffffffffffff1673ffffffffffffffffffffffffffffffffffffffff1673ffffffffffffffffffffffffffffffffffffffff1681526020016003820154815260200160048201548152602001600582015481526020016006820160009054906101000a900460ff1615151515815260200160078201548152505090503373ffffffffffffffffffffffffffffffffffffffff1660018084610e929190611783565b81548110610ea357610ea26117b7565b5b906000526020600020906008020160020160009054906101000a900473ffffffffffffffffffffffffffffffffffffffff1673ffffffffffffffffffffffffffffffffffffffff1614610f2b576040517f08c379a0000000000000000000000000000000000000000000000000000000008152600401610f2290611ee4565b60405180910390fd5b60018160c0019015159081151581525050806040015173ffffffffffffffffffffffffffffffffffffffff166108fc8260a001519081150290604051600060405180830381858888f19350505050158015610f8a573d6000803e3d6000fd5b507f4d09689e5ab2d74dc1f9a1e821d4dcb2bb48908bd8a74872127b995b7d12015482604051610fba91906113ca565b60405180910390a15050565b6040518061010001604052806060815260200160608152602001600073ffffffffffffffffffffffffffffffffffffffff168152602001600081526020016000815260200160008152602001600015158152602001600081525090565b6000604051905090565b600080fd5b600080fd5b6000819050919050565b61104a81611037565b811461105557600080fd5b50565b60008135905061106781611041565b92915050565b6000602082840312156110835761108261102d565b5b600061109184828501611058565b91505092915050565b600081519050919050565b600082825260208201905092915050565b60005b838110156110d45780820151818401526020810190506110b9565b60008484015250505050565b6000601f19601f8301169050919050565b60006110fc8261109a565b61110681856110a5565b93506111168185602086016110b6565b61111f816110e0565b840191505092915050565b600073ffffffffffffffffffffffffffffffffffffffff82169050919050565b60006111558261112a565b9050919050565b6111658161114a565b82525050565b61117481611037565b82525050565b60008115159050919050565b61118f8161117a565b82525050565b60006101008301600083015184820360008601526111b382826110f1565b915050602083015184820360208601526111cd82826110f1565b91505060408301516111e2604086018261115c565b5060608301516111f5606086018261116b565b506080830151611208608086018261116b565b5060a083015161121b60a086018261116b565b5060c083015161122e60c0860182611186565b5060e083015161124160e086018261116b565b508091505092915050565b600060208201905081810360008301526112668184611195565b905092915050565b600082825260208201905092915050565b600061128a8261109a565b611294818561126e565b93506112a48185602086016110b6565b6112ad816110e0565b840191505092915050565b6112c18161114a565b82525050565b6112d081611037565b82525050565b6112df8161117a565b82525050565b6000610100820190508181036000830152611300818b61127f565b90508181036020830152611314818a61127f565b905061132360408301896112b8565b61133060608301886112c7565b61133d60808301876112c7565b61134a60a08301866112c7565b61135760c08301856112d6565b61136460e08301846112c7565b9998505050505050505050565b61137a8161114a565b811461138557600080fd5b50565b60008135905061139781611371565b92915050565b6000602082840312156113b3576113b261102d565b5b60006113c184828501611388565b91505092915050565b60006020820190506113df60008301846112c7565b92915050565b600080fd5b600080fd5b7f4e487b7100000000000000000000000000000000000000000000000000000000600052604160045260246000fd5b611427826110e0565b810181811067ffffffffffffffff82111715611446576114456113ef565b5b80604052505050565b6000611459611023565b9050611465828261141e565b919050565b600067ffffffffffffffff821115611485576114846113ef565b5b61148e826110e0565b9050602081019050919050565b82818337600083830152505050565b60006114bd6114b88461146a565b61144f565b9050828152602081018484840111156114d9576114d86113ea565b5b6114e484828561149b565b509392505050565b600082601f830112611501576115006113e5565b5b81356115118482602086016114aa565b91505092915050565b600080600080608085870312156115345761153361102d565b5b600085013567ffffffffffffffff81111561155257611551611032565b5b61155e878288016114ec565b945050602085013567ffffffffffffffff81111561157f5761157e611032565b5b61158b878288016114ec565b935050604061159c87828801611058565b92505060606115ad87828801611058565b91505092959194509250565b600081519050919050565b600082825260208201905092915050565b6000819050602082019050919050565b600061010083016000830151848203600086015261160382826110f1565b9150506020830151848203602086015261161d82826110f1565b9150506040830151611632604086018261115c565b506060830151611645606086018261116b565b506080830151611658608086018261116b565b5060a083015161166b60a086018261116b565b5060c083015161167e60c0860182611186565b5060e083015161169160e086018261116b565b508091505092915050565b60006116a883836115e5565b905092915050565b6000602082019050919050565b60006116c8826115b9565b6116d281856115c4565b9350836020820285016116e4856115d5565b8060005b858110156117205784840389528151611701858261169c565b945061170c836116b0565b925060208a019950506001810190506116e8565b50829750879550505050505092915050565b6000602082019050818103600083015261174c81846116bd565b905092915050565b7f4e487b7100000000000000000000000000000000000000000000000000000000600052601160045260246000fd5b600061178e82611037565b915061179983611037565b92508282039050818111156117b1576117b0611754565b5b92915050565b7f4e487b7100000000000000000000000000000000000000000000000000000000600052603260045260246000fd5b7f4e487b7100000000000000000000000000000000000000000000000000000000600052602260045260246000fd5b6000600282049050600182168061182d57607f821691505b6020821081036118405761183f6117e6565b5b50919050565b7f4d696e696d756d20616d6f756e7420746f20646f6e61746520697320302e312060008201527f4554480000000000000000000000000000000000000000000000000000000000602082015250565b60006118a260238361126e565b91506118ad82611846565b604082019050919050565b600060208201905081810360008301526118d181611895565b9050919050565b7f43616d706169676e2048617320456e6465640000000000000000000000000000600082015250565b600061190e60128361126e565b9150611919826118d8565b602082019050919050565b6000602082019050818103600083015261193d81611901565b9050919050565b600061194f82611037565b915061195a83611037565b925082820190508082111561197257611971611754565b5b92915050565b7f43616d706169676e20676f616c20616c72656164792072656163686564000000600082015250565b60006119ae601d8361126e565b91506119b982611978565b602082019050919050565b600060208201905081810360008301526119dd816119a1565b9050919050565b7f43616d706169676e20697320656e646564000000000000000000000000000000600082015250565b6000611a1a60118361126e565b9150611a25826119e4565b602082019050919050565b60006020820190508181036000830152611a4981611a0d565b9050919050565b6000606082019050611a6560008301866112b8565b611a7260208301856112c7565b611a7f60408301846112c7565b949350505050565b7f43616d706169676e20646561646c696e652063616e6e6f7420626520696e207460008201527f6865207061737400000000000000000000000000000000000000000000000000602082015250565b6000611ae360278361126e565b9150611aee82611a87565b604082019050919050565b60006020820190508181036000830152611b1281611ad6565b9050919050565b7f43616d706169676e20676f616c206d757374206265206174206c65617374203060008201527f2e31204554480000000000000000000000000000000000000000000000000000602082015250565b6000611b7560268361126e565b9150611b8082611b19565b604082019050919050565b60006020820190508181036000830152611ba481611b68565b9050919050565b60008190508160005260206000209050919050565b60006020601f8301049050919050565b600082821b905092915050565b600060088302611c0d7fffffffffffffffffffffffffffffffffffffffffffffffffffffffffffffffff82611bd0565b611c178683611bd0565b95508019841693508086168417925050509392505050565b6000819050919050565b6000611c54611c4f611c4a84611037565b611c2f565b611037565b9050919050565b6000819050919050565b611c6e83611c39565b611c82611c7a82611c5b565b848454611bdd565b825550505050565b600090565b611c97611c8a565b611ca2818484611c65565b505050565b5b81811015611cc657611cbb600082611c8f565b600181019050611ca8565b5050565b601f821115611d0b57611cdc81611bab565b611ce584611bc0565b81016020851015611cf4578190505b611d08611d0085611bc0565b830182611ca7565b50505b505050565b600082821c905092915050565b6000611d2e60001984600802611d10565b1980831691505092915050565b6000611d478383611d1d565b9150826002028217905092915050565b611d608261109a565b67ffffffffffffffff811115611d7957611d786113ef565b5b611d838254611815565b611d8e828285611cca565b600060209050601f831160018114611dc15760008415611daf578287015190505b611db98582611d3b565b865550611e21565b601f198416611dcf86611bab565b60005b82811015611df757848901518255600182019150602085019450602081019050611dd2565b86831015611e145784890151611e10601f891682611d1d565b8355505b6001600288020188555050505b505050505050565b600060c0820190508181036000830152611e43818961127f565b90508181036020830152611e57818861127f565b9050611e6660408301876112b8565b611e7360608301866112c7565b611e8060808301856112c7565b611e8d60a08301846112c7565b979650505050505050565b7f4e6f7420746865206f776e657200000000000000000000000000000000000000600082015250565b6000611ece600d8361126e565b9150611ed982611e98565b602082019050919050565b60006020820190508181036000830152611efd81611ec1565b905091905056fea2646970667358221220ab355db1d3d4367910c3eaee5b6fb7dc7e5b1e1e21282efd5f22f41bd4c76d1864736f6c634300081a0033",
  "linkReferences": {},
  "deployedLinkReferences": {}
}